:100000000C944D070C9491070C9491070C94910754
:100010000C9491070C9491070C9491070C94910700
:100020000C9491070C9491070C94362D0C94082E87
:100030000C94E7210C9491070C9491070C94910770
:100040000C9491070C9491070C9491070C949107D0
:100050000C9491070C945A220C9491070C949107DC
:100060000C9491070C9491070C9491070C949107B0
:100070000C9491070C9491070C9491070C949107A0
:100080000C94AD140C9491070C9491070C94910767
:100090000C9491070C9491070C9491070C94910780
:1000A0000C9491070C9491070C9491070818081868
:1000B000371837187718DD19DD19DD199918DD198A
:1000C00040194019AA19B219DD19D8194D194D193D
:1000D0004D194D194D194D194D194D194D194D19F0
:1000E0004D194D194D194D194D194D195D196D19B0
:1000F00074197B1985196D2E8F2E7A2F8F2E7A2FDA
:10010000D12EF42E7A2F492F5C2F00F000201E00F4
:100110001F002000210022002300240025002600CB
:1001200027002D002E004C002A002B0014001A007E
:100130000800150017001C0018000C001200130026
:100140002F003000310000003900040016000700C5
:1001500009000A000B000D000E000F0033003400F0
:10016000000028000000E10000001D001B00060048
:10017000190005001100100036003700380000009B
:10018000E5000000E000E300E200000000000000E5
:100190002C00000000000000E600E7000151E40030
:1001A0000000350001000100010001000100010014
:1001B00001000100010001000100010000700100C8
:1001C0000100010001000100010001000100010027
:1001D0000100010001002F7030703170000001003B
:1001E0000100010001000100010001000100010007
:1001F00001000100010000000100000001000000FA
:1002000033703470357036703770387039703A70BA
:1002100001000100000001000000010001000100D8
:1002200000000000000001000000000000000100CC
:1002300001000100010000000A44454255473A20F0
:10024000656E61626C65642E0A000A0025303136E5
:1002500062003A200025303258000A722F632030A5
:100260003132333435363738394142434445460A12
:10027000000A002530325800626F756E6365213ABE
:10028000200054494D4552332064697361626C65A6
:10029000642E0A0054494D45523320656E61626CEC
:1002A00065642E0A007267626C6967687420736502
:1002B0007420687376205B454550524F4D5D3A205F
:1002C00025752C25752C25750A007267626C696787
:1002D000687420746F67676C653A207267626C6936
:1002E0006768745F636F6E6669672E656E61626CC6
:1002F00065203D2025750A007267626C6967687425
:10030000206D6F64653A2025750A007267626C691A
:100310006768745F696E6974207267626C69676888
:10032000745F636F6E6669672E6D6F6465203D2034
:10033000302E2057726974652064656661756C742F
:100340002076616C75657320746F20454550524F5F
:100350004D2E0A007267626C696768745F696E6926
:1003600074206565636F6E666967206973206E6FC0
:100370007420656E61626C65642E0A007267626C3F
:10038000696768745F696E6974207374617274213F
:100390000A007267626C696768745F696E697420CD
:1003A00063616C6C65642E0A007267626C696768D1
:1003B000745F636F6E6669672E76616C203D2025E1
:1003C000640A007267626C696768745F636F6E6667
:1003D00069672E736174203D2025640A007267628C
:1003E0006C696768745F636F6E6669672E687565B0
:1003F000203D2025640A007267686C696768745F35
:10040000636F6E6669672E6D6F6465203D2025649D
:100410000A007267626C696768745F636F6E666911
:10042000672E656E61626C65203D2025640A00724E
:1004300067626C696768745F636F6E666967206581
:1004400070726F6D0A006565636F6E6669675F75D0
:1004500070646174655F7267626C696768745F6419
:10046000656661756C740A00643214643214783CF9
:100470001E1E140A0500000000010101020203040F
:1004800005050607090A0B0C0E0F11121415171992
:100490001B1D1F212325282A2C2F313436393B3EA2
:1004A000414346494C4F5255585A5D6164676A6DE5
:1004B000707376797C7F8386898C8F9295989B9ECA
:1004C000A2A5A7AAADB0B3B6B9BCBEC1C4C6C9CBBC
:1004D000CED0D3D5D7DADCDEE0E2E4E6E8EAEBED35
:1004E000EEF0F1F3F4F5F6F8F9FAFAFBFCFDFDFE97
:1004F000FEFEFFFFFFFFFFFFFFFEFEFEFDFDFCFB1C
:10050000FAFAF9F8F6F5F4F3F1F0EEEDEBEAE8E6D5
:10051000E4E2E0DEDCDAD7D5D3D0CECBC9C6C4C1A5
:10052000BEBCB9B6B3B0ADAAA7A5A29E9B98959242
:100530008F8C898683807C797673706D6A6764613D
:100540005D5A5855524F4C494643413E3B3936342B
:10055000312F2C2A282523211F1D1B191715141292
:10056000110F0E0C0B0A0907060505040302020110
:100570000101000000000101020202020202030365
:100580000303030303030303030303030404040437
:100590000404040404040404050505050505050513
:1005A00005050606060606060606070707070707E7
:1005B000070808080808080909090909090A0A0AB0
:1005C0000A0A0B0B0B0B0B0C0C0C0C0C0D0D0D0D70
:1005D0000E0E0E0E0F0F0F1010101011111112121F
:1005E00012131313141414151516161617171818BA
:1005F0001919191A1A1B1B1C1C1D1D1E1E1F202039
:1006000021212223232424252626272828292A2B92
:100610002B2C2D2E2F3030313233343536373839BC
:100620003A3B3C3D3E3F40414244454647494A4BA8
:100630004C4E4F5152535556585A5B5D5E60626343
:100640006567696B6D6E70727476797B7D7F81846E
:1006500086888B8D909295979A9D9FA2A5A8ABAE08
:10066000B1B4B7BABEC1C4C8CBCFD3D6DADEE2E6E6
:10067000EAEEF2F8FF0A002530325820006B657967
:10068000626F6172645F7265706F72743A20000A03
:100690000025303258006B6579626F6172645F7358
:1006A00065745F6C65643A200064656C5F6B6579A6
:1006B0005F6269743A2063616E27742064656C3AE6
:1006C00020253032580A006164645F6B65795F628F
:1006D00069743A2063616E2774206164643A20254E
:1006E0003032580A00646F6E652E0A00626F6F74B4
:1006F0006D61676963207363616E3A202E2E2E2030
:10070000003F00433E20004C25640A0074696D657B
:10071000725F72656164333228293A202530346C67
:10072000580A006B6579626F6172645F6E6B726FFD
:100730003A2025580A006B6579626F6172645F69BF
:10074000646C653A2025580A006B6579626F6172A6
:10075000645F70726F746F636F6C3A2025580A0083
:10076000686F73745F6B6579626F6172645F6C65EB
:10077000647328293A2025580A000A092D20537449
:1007800061747573202D0A004743433A20342E3894
:100790002E31204156522D4C4942433A20312E38B9
:1007A0002E3073766E204156525F415243483A20B4
:1007B000617672350A004F5054494F4E533A204CDF
:1007C00055464120424F4F544D41474943204558DB
:1007D0005452414B455920434F4E534F4C452043B3
:1007E0004F4D4D414E44204E4B524F203430393600
:1007F0000A004255494C443A20323031362D3132CC
:100800002D32332D30313A35383A323620283031D6
:100810003A35383A3238204465632032332032305A
:100820003136290A005649443A2030784645454435
:100830002853656E7472617129205049443A203002
:100840007836303630285336302D524742292056DC
:1008500045523A203078303030330A004445534313
:100860003A20514D4B206B6579626F61726420664E
:1008700069726D7761726520666F722053656E7460
:10088000726171205336302D5247420A000A092DF9
:100890002056657273696F6E202D0A000A092D209B
:1008A000436F6E736F6C65202D0A4553432F713A69
:1008B00009717569740A000A092D204D6167696321
:1008C000202D0A443A094465627567204D657373AB
:1008D00061676520546F67676C650A583A094D6116
:1008E00074726978204465627567204D6F64652075
:1008F000546F67676C65202D2053686F77206B6598
:10090000797072657373657320696E206D6174729E
:10091000697820677269640A4B3A094B6579626F9E
:1009200061726420446562756720546F67676C6507
:10093000202D2053686F77206B6579707265737313
:10094000207265706F72740A4D3A0944656275676A
:10095000204D6F75736520546F67676C650A563A52
:100960000956657273696F6E0A533A09537461745C
:1009700075730A433A09416374697661746520436B
:100980006F6E736F6C65204D6F64650A46312D463E
:1009900031303A0953776974636820746F204C6171
:1009A00079657220302D392028463130203D204C89
:1009B00030290A302D393A095377697463682074F5
:1009C0006F204C6179657220302D390A4553433AC6
:1009D0000953776974636820746F204C617965727C
:1009E00020302028616C7465726E617465206B65BF
:1009F000792031290A47524156453A09537769749B
:100A0000636820746F204C61796572203020286102
:100A10006C7465726E617465206B65792032290A89
:100A200050415553453A094A756D7020746F204204
:100A30006F6F746C6F6164657220285265736574A2
:100A4000290A453A095072696E7420454550524F43
:100A50004D2053657474696E67730A4E3A094E4BA4
:100A6000524F20546F67676C650A000A00257500B5
:100A70002E6C6576656C3A20000A002575002E659F
:100A80006E61626C653A20000A00253032580062BF
:100A900061636B6C696768745F636F6E6669672E0C
:100AA0007261773A20000A002575002E6E6B726F16
:100AB0003A20000A002575002E737761705F62612D
:100AC000636B736C6173685F6261636B73706163A6
:100AD000653A20000A002575002E737761705F6704
:100AE000726176655F6573633A20000A00257500C0
:100AF0002E6E6F5F6775693A20000A002575002E1B
:100B0000737761705F72616C745F726775693A20A8
:100B1000000A002575002E737761705F6C616C743C
:100B20005F6C6775693A20000A002575002E6361C5
:100B300070736C6F636B5F746F5F636F6E74726FF3
:100B40006C3A20000A002575002E737761705F6390
:100B50006F6E74726F6C5F636170736C6F636B3A0E
:100B600020000A0025303258006B65796D61705F96
:100B7000636F6E6669672E7261773A20000A0025FE
:100B800075002E6D6F7573653A20000A002575009B
:100B90002E6B6579626F6172643A20000A002575D8
:100BA000002E6D61747269783A20000A0025750084
:100BB0002E656E61626C653A20000A00253032585D
:100BC0000064656275675F636F6E6669672E726148
:100BD000773A20000A0025750064656661756C74BB
:100BE0005F6C617965723A20003F004E4B524F3A7C
:100BF000206F66660A004E4B524F3A206F6E0A0015
:100C00000A6D6F7573653A206F66660A000A6D6F2C
:100C10007573653A206F6E0A000A6B6579626F61C1
:100C200072643A206F66660A000A6B6579626F61CA
:100C300072643A206F6E0A000A6D61747269783AC4
:100C4000206F66660A000A6D61747269783A206FD7
:100C50006E0A000A64656275673A206F66660A006C
:100C60000A64656275673A206F6E0A000A0A4A755F
:100C70006D70696E6720746F20626F6F746C6F6146
:100C80006465722E2E2E2000433E20006565636F42
:100C90006E6669673A0A006261636B6C69676874C3
:100CA00020737465703A2025750A006261636B6C6D
:100CB0006967687420746F67676C653A2025750AE8
:100CC000006261636B6C6967687420646563726558
:100CD0006173653A2025750A006261636B6C696710
:100CE000687420696E6372656173653A2025750AC0
:100CF000005B735D004B6579626F61726420737491
:100D00006172742E0A005B575D005B535D005B529D
:100D10005D005B445D005B435D00100353003600E3
:100D200030002D0052004700420000001003530025
:100D300065006E0074007200610071000000040321
:100D4000090409027400040100A0FA09040000016A
:100D50000301010009211101000122400007058162
:100D60000308000A09040100010300000009211121
:100D70000100012236000705820308000A09040267
:100D800000020300000009211101000122220007D6
:100D90000583032000010705030320000109040364
:100DA00000010300000009211101000122390007A0
:100DB0000584031000011201100100000008EDFE7F
:100DC000606003000102000105010906A101050799
:100DD00019E029E71500250195087501810205082C
:100DE0001901290595057501910295017503910178
:100DF00005071900297715002501957875018102ED
:100E0000C00631FF0974A1010975150026FF009580
:100E100020750881020976150026FF0095207508C7
:100E20009102C005010980A101850216010026B7C3
:100E3000001A01002AB700751095018100C0050C49
:100E40000901A1018503160100269C021A01002A4E
:100E50009C02751095018100C005010906A10105DC
:100E60000719E029E715002501950875018102950C
:100E7000017508810105081901290595057501917C
:100E8000029501750391010507190029FF15002638
:100E9000FF00950675088100C00011241FBECFEF2A
:100EA000DAE0DEBFCDBF04B603FE24C080912A0283
:100EB00090912B02A0912C02B0912D028730904B83
:100EC000A740B04BB9F410922A0210922B02109254
:100ED0002C0210922D0214BE84B7877F84BF88E154
:100EE0000FB6F89480936000109260000FBEE0E0AF
:100EF000F8E3099511E0A0E0B1E0E6E6F0E602C013
:100F000005900D92A833B107D9F722E0A8E3B1E02C
:100F100001C01D92AA32B207E1F70E94762A0C9412
:100F200031300C940000FF93EF93E0913801F09181
:100F30003901309709F00995EF91FF910895FC016F
:100F40008591803011F0EFDFFBCF0895FF27E0E2BD
:100F500030E247FF0CC0419597FF09C0EDE2609574
:100F6000709580959095611D711D811D911D27FFC4
:100F700002C0219530E350E2AA27660F771F881F31
:100F8000991FAA1FA41710F0A41B63955A95A9F7DF
:100F9000AA3008F0A95FA05DAF93F39561157105C4
:100FA0008105910541F7ED3211F4EF93F395F217B6
:100FB00018F43F93F395FBCF8F91B5DFFA95E1F7E6
:100FC0000895E991F9918591803021F0853219F0E9
:100FD000AADFF9CF089520E0E89455915532C1F386
:100FE000503311F4689455915A3348F4505390F3A8
:100FF000220F022E220F220F200D250FF4CF0EF408
:10100000219589919991533619F3533729F1533525
:1010100059F1BC0188279927E8945C3621F489911D
:10102000999168945591543639F446EF7EF077FFE4
:101030000DC08FEF9FEF0AC055374AE039F05835A1
:1010400040E121F0523642E009F00895FF93EF931A
:101050007DDFEF91FF91B7CFFF93EF93FC0181917B
:101060008030B9F360DFFBCFFF93EF9368DFF1CF00
:10107000DF93CF93CDB7DEB72596A3DFCF91DF9176
:1010800008950E94F80C0C94470A0C94F90CCF9325
:10109000DF93EC0161111BC00E9495208272809346
:1010A0003A019A81992341F0882311F085E301C028
:1010B00089E20E94F21F07C0882311F085E301C076
:1010C00089E20E944320DF91CF910C94E120DF91CF
:1010D000CF91089581E0089581E008950C946C0803
:1010E0000E94471A2FEF84E39CE0215080409040FB
:1010F000E1F700C000000C947F220F931F93CF9361
:10110000DF938C01FC01C081D181CE010E94721F4E
:10111000BE010E94FC0BEC01B8010E946E088823FE
:1011200009F468C1B801CE010E948B0C882309F430
:1011300061C1C533F0E7DF0741F4F80182818823FC
:1011400009F458C10E94BC1055C1C63380E7D807C6
:1011500008F0E8C0C43190E7D90708F0CCC0C2302D
:10116000E0E7DE0708F49DC0F8018281882309F4D6
:10117000A4C00E946721811102C00E9441210E94E7
:10118000842190E090931B0280931A02C230F0E712
:10119000DF0721F480911A0281607CC0C33080E7B0
:1011A000D80721F480911A02826074C0C43090E79D
:1011B000D90721F480911A0284606CC0C530E0E741
:1011C000DE0719F480911A0227C0C630F0E7DF0766
:1011D00021F480911A0280615DC0C73080E7D80792
:1011E00021F480911A02806255C0C83090E7D90777
:1011F00021F480911A0280644DC0C930E0E7DE0717
:1012000021F480911A02806845C0CA30F0E7DF07F8
:1012100029F480911A02846088603CC0CB3080E75A
:10122000D80721F480911A028E7F34C0CC3090E729
:10123000D90721F480911A028D7F2CC0CD30E0E7D0
:10124000DE0721F480911A028B7F24C0CE30F0E7B4
:10125000DF0719F480911A021CC0CF3080E7D8074D
:1012600021F480911A028F7E15C080911A02C0313C
:1012700090E7D90711F48F7D0DC0C131E0E7DE079B
:1012800011F48F7B07C0C231D04711F48F7702C0B1
:101290008B7F877F80931A0280911A020E94882197
:1012A000A9C0C115F0E7DF0779F0C130D047A1F040
:1012B00081E080933B0180933C01C801DF91CF9195
:1012C0001F910F910C946A08F8018281882309F418
:1012D00091C00E9470088EC0F8018281882309F4B1
:1012E00089C088E392E00E949F078091D8018160C5
:1012F0008093D8017FC0C33390E7D90741F4F80148
:101300008281882309F476C00E94531273C0C433CB
:10131000D04771F6F8018281882309F46BC00E94DE
:10132000491268C0C933F0E7DF0741F4F801828150
:10133000882309F45FC00E9429115CC0CA3380E78A
:10134000D807D8F4F8018281C733F0E7DF0731F41A
:10135000882309F44FC00E94F4104CC0C833D04712
:1013600030F4882309F446C00E94D51043C0882376
:1013700009F440C00E940F113DC0CB33E0E7DE0707
:10138000A1F4F8018281882321F010923B0182E0D0
:101390001BC080913B01811106C086E20E949B1612
:1013A00086E20E946E1782E01DC0CB33F0E7DF07B4
:1013B000E0F0CC33D04709F07BCFF801828188235D
:1013C00031F010923C0180E20E94BD1713C0809161
:1013D0003C01811106C087E20E949B1687E20E94B1
:1013E0006E1780E20E94C41705C0F8018281811146
:1013F0000E94441180E0DF91CF911F910F910895D9
:101400000C944508279A2F988FEF9FEF90938700B1
:10141000809386008AE08093800089E18093810038
:101420000C9445270E94020A0C9441082F988111C0
:101430000AC080918000877F8093800010928D0089
:1014400010928C000895833041F480918000886070
:10145000809380008FEF9FEF12C090918000986082
:101460009093800023E030E0281B3109220F331FC6
:101470008FEF9FEF02C0969587952A95E2F790939C
:101480008D0080938C00089508950C94440A08956B
:101490000C94450A2FE0729FF00111243BE4839FD6
:1014A000E00DF11D1124E60FF11DEE0FFF1FE45FAB
:1014B000FE4F859194910E940E0C811540E5940792
:1014C00008F047C0811520E4920708F01BC1883E50
:1014D000910520F5803E910508F08AC1883A910572
:1014E00078F4853A910508F0A5C08130910509F49A
:1014F0007FC108F436C18430910508F079C131C14B
:101500008D3B910508F4A1C0803C910508F429C1E8
:10151000FC01EE0FFF1FE657F040EEC0811530E2F0
:10152000930758F4811541E0940708F061C1803FAA
:10153000910508F416C190650895811520E392077E
:1015400008F0DDC09F70880F991F865F9E4FFC01D9
:10155000D3C0811535E5930708F043C0811544E5F4
:10156000940708F0E6C0811522E5920708F5811579
:1015700031E5930708F0C9C0482F437021E030E0FF
:1015800002C0220F331F4A95E2F73C68AC0164E0C9
:10159000569547956A95E1F74370342B8F70869581
:1015A000869540E2849FC0011124822B932B0895DD
:1015B000282F26952695AC01437055278115934514
:1015C00008F0A8C030E2239FC001112421E030E0E0
:1015D00002C0220F331F4A95E2F7822B932B9C689F
:1015E00008958F3240E7940790F48F3120E79207F7
:1015F00008F0AAC0811536E5930708F49FC09C0146
:1016000030562115304108F0ACC09F709BC080332C
:1016100020E7920709F49FC008F49AC0813340E79D
:10162000940709F49BC08233904709F09AC080E088
:1016300093ED0895853A910509F496C0863A91058F
:1016400009F495C083E890E40895883A910509F477
:1016500091C0893A910509F490C08A3A910509F43C
:101660008FC08B3A910509F48EC08C3A910509F42C
:101670008DC08B3B910509F48CC08C3B910509F41E
:101680008BC08D3A910509F48AC0803B910509F41D
:1016900089C08E3A910509F488C08F3A910509F402
:1016A00087C0813B910509F486C0823B910509F40E
:1016B00085C0833B910509F484C0843B910509F4FE
:1016C00083C0853B910509F482C0863B910509F4EE
:1016D00081C0873B910509F480C0883B910509F4DE
:1016E0007FC0893B910509F47EC08A3B910509F0D2
:1016F0007DC08AE296E40895859194910895992792
:10170000906C08959F70906A0895982F8827816F34
:10171000906A089530E2239FC001112421E030E057
:1017200002C0220F331F4A95E2F7822B932B9A684F
:101730000895982F8827846F906A08958F7199274C
:10174000982F8827906208958F519047946D08953F
:1017500080E091ED089580E090ED089580E092EDB5
:10176000089580E090E0089581E890E4089582E88B
:1017700090E4089582EE94E4089589EE94E4089547
:101780008AEE94E4089585EB94E4089586EB94E45E
:10179000089583EB94E4089584EB94E4089587EB33
:1017A00094E408958CEC94E408958DEC94E4089509
:1017B00083E895E408958AE895E4089582E995E43C
:1017C000089584E995E4089581E296E4089583E21A
:1017D00096E4089584E296E4089585E296E40895F7
:1017E00086E296E4089587E296E4089580E094E422
:1017F000089580E090E008959FE0799FF001112422
:101800009BE4899FE00DF11D1124E60FF11DEE0F01
:10181000FF1FE45FFE4F85919491089582389105F2
:1018200049F1B0F48133910509F459C048F4893283
:10183000910509F44FC08A32910509F455C0089505
:101840008533910509F441C08933910599F00895D4
:10185000833E910531F138F4803E910591F0823E4E
:101860009105A9F00895863E910501F1873E910505
:1018700039F1089520911A0220FD3BC021FD39C0A5
:10188000089580911A0280FF34C089E341C080919D
:101890001A0282FF32C080911A0284FF2CC080E0BD
:1018A00037C080911A0282FD28C0F5CF80911A02BC
:1018B00083FF25C080911A0284FDF1CF87EE28C0F6
:1018C00080911A0283FD1BC0F5CF80911A0285FF1B
:1018D00018C019C080911A0285FF15C012C08091EE
:1018E0001A0286FF12C013C080911A0286FF0FC031
:1018F0000CC080EE0DC083EE0BC082EE09C086EEF8
:1019000007C085E305C089E203C081E301C08AE224
:1019100090E008950895CF93DF93EC01FB0182815D
:10192000811102C081E040C080914A01811125C02F
:10193000C431D047B9F70E948A0C81E080934A01F4
:101940000E941922909349018093480110923D0111
:1019500010923F0110923E011092410110924001FD
:1019600010924301109242011092450110924401DD
:10197000109247011092460116C080914801909143
:1019800049010E943122883C910560F680913D0119
:10199000E82FF0E0EE0FFF1FE25CFE4FD183C08323
:1019A0008F5F80933D0180E0DF91CF910895AFE19B
:1019B000B1E021E030E08D91E82FF0E094E0F59582
:1019C000E7959A95E1F741A18F70B90102C0660FC2
:1019D000771F8A95E2F7CB01962F9095492341A373
:1019E00092A1982B92A371E0A432B70721F7089532
:1019F0000895089585B7806885BF85B7806885BFDD
:101A00000E94D70CA0E1B1E021E030E08D91E82FF9
:101A1000F0E044E0F595E7954A95E1F741A18F7034
:101A2000B90102C0660F771F8A95E2F7CB01962FA6
:101A30009095492341A392A1982B92A371E0AF31D5
:101A4000B70721F7E5E5F1E0ABE4B1E011921192BF
:101A50001D921D9281E0EF35F807C1F70C94120A30
:101A6000BF92CF92DF92EF92FF920F931F93CF938B
:101A7000DF930FE111E0CBE4D1E0EE24E394F12C0D
:101A8000E5E0BE2EF3E7CF2EF2E0DF2EF8018191E4
:101A90008F01E82FF0E064E0F595E7956A95E1F7AE
:101AA00021A18F70A70102C0440F551F8A95E2F74C
:101AB000CA01242B21A392A18095982392A350EAD6
:101AC0005A95F1F7A0E1B1E080E090E020E030E04D
:101AD0006D91E62FF0E054E0F595E7955A95E1F722
:101AE00040A150E06F7002C0559547956A95E2F7A6
:101AF00040FD08C0A701022E02C0440F551F0A94E2
:101B0000E2F702C040E050E0842B952B2F5F3F4F5F
:101B10002F303105E9F6288139812817390741F13D
:101B20009983888380910001882301F18091D801F5
:101B300080FF04C088E792E00E949F078091D8014F
:101B400080FF0CC0809100011F928F93DF92CF9293
:101B50000E9438080F900F900F900F908091D8013D
:101B600080FF04C081E792E00E949F07B0920001CD
:101B70000E94D70C229681E00432180709F086CF24
:101B8000809100018823C1F0815080930001882357
:101B900039F0EFE9FFE03197F1F700C000000CC029
:101BA000A5E5B1E0EBE4F1E0819191918D939D93F6
:101BB00041E0E535F407C1F70E94000A81E0DF91BA
:101BC000CF911F910F91FF90EF90DF90CF90BF903A
:101BD0000895E82FF0E0EE0FFF1FEB5AFE4F8081D3
:101BE00091810895CF92DF92EF92FF920F931F930E
:101BF000CF93DF938AE592E00E949F07C5E5EC2E24
:101C0000C1E0FC2EC0E0D0E015E5C12E12E0D12EDF
:101C10000CE412E0DF93CF93DF92CF920E9438085A
:101C200082E592E00E949F07F701819191917F01E7
:101C30000E9427219F938F931F930F930E94380830
:101C40008AE492E00E949F0721968DB79EB708967E
:101C50000FB6F8949EBF0FBE8DBFC530D105D1F62B
:101C6000DF91CF911F910F91FF90EF90DF90CF9078
:101C7000089531B3242F2095232331B3342B4FB74C
:101C8000F894FC01680F791FE617F70789F0819136
:101C900098E031BB000000C087FF21BB880F000027
:101CA00000C000C000C021BB00C09A9591F7ECCFE6
:101CB0004FBF089520B3242B20BB9B01220F331F5D
:101CC000260F371FB9010E94390E87EC90E001976B
:101CD000F1F700C00000089540E40C945A0EDF9222
:101CE000EF92FF920F931F93CF93DF937C01E42F2A
:101CF000F0E0EB58FA4FD490EFEFF0E0E61BF1097B
:101D0000EB58FA4FE491E09509F492C00D2D10E0E4
:101D10008FEF90E08E1B9109809FA001819F500D55
:101D2000909F500D1124E52FF52FCCE3D0E0C70193
:101D3000BE010E94BB2FDC016230710509F443C073
:101D4000C8F46115710589F16130710509F073C03E
:101D50000E1B1109AE01481B590B049FC001059FC2
:101D6000900D149F900D1124BE010E94BB2F8E2F49
:101D7000FD2D5BC06430710509F44AC0A8F16530DF
:101D8000710509F058C00E1B1109AE01481B590B13
:101D9000049FC001059F900D149F900D1124BE015A
:101DA0000E94BB2F8E2F860F49C00E1B11090E9D5E
:101DB000C0010F9D900D1E9D900D1124BE010E942B
:101DC000BB2F8E2F22C00E1B11090A9FC0010B9F33
:101DD000900D1A9F900D1124BE010E94BB2F8E2FD3
:101DE000860FFD2DDE2E2AC00E1B1109AE01481BE9
:101DF000590B049FC001059F900D149F900D112455
:101E0000BE010E94BB2F8D2DDE2EFE2FF60F16C0B9
:101E10000E1B11090A9FC0010B9F900D1A9F900D78
:101E20001124BE010E94BB2F8D2DDE2ED60E06C0C2
:101E30008D2DFD2D03C080E0F0E0D12CD90111964D
:101E4000DC921197FC9312968C93DF91CF911F91A6
:101E50000F91FF90EF90DF90089588E090E00C9450
:101E6000F12FAB01BC0188E090E00C940F30809121
:101E7000D80180FF08C086E494E09F938F930E946E
:101E800038080F900F9083E08093F4018091F50162
:101E9000807884668F778093F5018CEC8093F601CF
:101EA0008093F7016091F4017091F5018091F60142
:101EB0009091F7010C94310F8091D80180FF08C0F8
:101EC0008FE294E09F938F930E9438080F900F90B9
:101ED0008091D80180FF0FC08091F40181701F9222
:101EE0008F9382E194E09F938F930E9438080F9024
:101EF0000F900F900F908091D80180FF10C08091BB
:101F0000F40186958F731F928F9387EF93E09F93D1
:101F10008F930E9438080F900F900F900F90809130
:101F2000D80180FF19C09091F401991F9927991F3A
:101F30002091F501822F880F892B27FB222720F97A
:101F40002F938F938DED93E09F938F930E9438088A
:101F50000F900F900F900F908091D80180FF0EC0CE
:101F60008091F6011F928F9383EC93E09F938F9360
:101F70000E9438080F900F900F900F908091D80119
:101F800080FF0EC08091F7011F928F9389EA93E042
:101F90009F938F930E9438080F900F900F900F908F
:101FA00008958091F40180FF06C06AE070E08CEF34
:101FB00091E00C946C0EEEEFF1E0DF0111971C92B2
:101FC00011971C921082339682E0EC31F807A9F742
:101FD000ECCFEEEFF1E0DF0111978C9311976C934A
:101FE0004083339692E0EC31F907A9F70C94D10FB6
:101FF000CF92DF92EF92FF920F931F93CF93DF93D5
:1020000000D01F92CDB7DEB7F82EC92ED62EE42E03
:102010000091F4011091F5012091F6013091F70142
:102020000093F8011093F9012093FA013093FB011A
:102030008091F40180FF1EC09E012F5F3F4F8F2DC6
:102040000E946F0E8091F801F0FA87F98093F801F1
:10205000F6942091F90120782F29C0FA27F92093CE
:10206000F901D092FA01E092FB014B8169818A81EA
:102070000E94E90F0F900F900F90DF91CF911F9169
:102080000F91FF90EF90DF90CF9008950F931F93E3
:10209000CF93DF93C82F192F062FD42F8091F401EF
:1020A00080FF65C0982F9E77923029F48C2F912F56
:1020B0000E94F80F1AC0282F26952F739EE3920FC7
:1020C0009F73943018F4D091F7010FC0265C2F73E2
:1020D000293058F4881F8827881F1091F501C12FD7
:1020E000CC0FC82B17FB112710F98091F401C0FB0E
:1020F00087F98093F401C6958091F50180788C2B47
:1021000010FB87F98093F5010093F601D093F70156
:102110006091F4017091F5018091F6019091F701C1
:102120000E94310F8091F7011F928F938091F601E9
:102130001F928F939091F401991F9927991F2091D5
:10214000F501822F880F892B27FB222720F92F9357
:102150008F9385EA92E09F938F930E9438088DB702
:102160009EB708960FB6F8949EBF0FBE8DBFDF9145
:10217000CF911F910F9108952091F401221F2227E2
:10218000221F3091F501432F440F842F822B37FB00
:10219000992790F90A9668E671E00E94CF2F409146
:1021A000F7016091F6010C9446102091F401221F72
:1021B0002227221F3091F501432F440F842F822BB9
:1021C00037FB992790F98A3091051CF4825A9E4F6B
:1021D00001C00A9768E671E00E94CF2F4091F70195
:1021E0006091F6010C9446106091F601862F90E004
:1021F0008F3E910514F46F5E01C06FEF8091F40182
:10220000881F8827881F9091F501292F220F97FB9F
:10221000992790F94091F701822B0C944610609118
:10222000F601862F90E0419714F0615101C060E003
:102230008091F401881F8827881F9091F501292F2C
:10224000220F97FB992790F94091F701822B0C946C
:1022500046104091F701842F90E08F3E910514F4D1
:102260004F5E01C04FEF8091F401881F8827881FBF
:102270009091F501292F220F97FB992790F96091F2
:10228000F601822B0C9446104091F701842F90E0C8
:10229000419714F0415101C040E08091F401881F42
:1022A0008827881F9091F501292F220F97FB9927E6
:1022B00090F96091F601822B0C9446108091700188
:1022C00081110FC081E08093700189E080939100BB
:1022D0008FB7F89493E09093990090ED90939800C5
:1022E0008FBF08958091710082608093710080910A
:1022F000D80180FF08C084E992E09F938F930E94E9
:1023000038080F900F900895809171008D7F809311
:1023100071008091D80180FF08C082E892E09F930D
:102320008F930E9438080F900F9008959091F401B8
:1023300090FF4DC09178811102C0926003C0883136
:1023400020F09E629093F40105C08F73880F892B53
:102350008093F4016091F4017091F5018091F60190
:102360009091F7010E94310F8091F40186958F734F
:102370001F928F9388EF92E09F938F930E9438086B
:102380008091F401982F9E770F900F900F900F90EF
:10239000923019F40E94841107C08695825C8F7375
:1023A000863110F40E9472118091F401881F8827F1
:1023B000881F9091F501292F220F97FB992790F9FB
:1023C0004091F7016091F601822B0C94461008951C
:1023D0008091D80181608093D80182E993E09F9336
:1023E0008F930E94380881E0809371018091D80119
:1023F0000F900F9080FF08C08CE793E09F938F931E
:102400000E9438080F900F900E946721811110C020
:102410008091D80180FF08C084E593E09F938F935B
:102420000E9438080F900F900E9441210E94370FA0
:102430000E942D0F6093F4017093F5018093F601D3
:102440009093F7016E77C1F48091D80180FF08C0A6
:102450008BE093E09F938F930E9438080F900F902A
:102460000E94370F0E942D0F6093F4017093F501C5
:102470008093F6019093F7010E945C0F0E945E1119
:102480008091F40180FF04C086958F730C9496119F
:1024900008958091F40186958F738F5F883108F0DD
:1024A00081E00C9496118091F401982F909590FB07
:1024B00080F98093F4016091F4017091F5018091AD
:1024C000F6019091F7010E94310F8091F401817023
:1024D0001F928F938AEC92E09F938F930E9438080B
:1024E0008091F4010F900F900F900F9080FF04C027
:1024F00086958F730C9496110E9484112FEF80E7BC
:1025000092E0215080409040E1F700C000000C9420
:10251000D10FCF93C82F80916E0190916F010E94CF
:102520003122EC2FF0E0EF58FB4FE491F0E08E17F2
:102530009F0710F10E94192290936F0180936E0102
:10254000E0916D01F0E0EB58FB4F44918091F40174
:10255000881F8827881F9091F501292F220F97FB4C
:10256000992790F96091F601822B0E94F80F8091D3
:102570006D018F5F80936D01CF910895CF93C82F28
:1025800080916B0190916C010E943122EC2FF0E060
:10259000E259FB4FE491F0E08E179F07E8F00E94AC
:1025A000192290936C0180936B014091F701609127
:1025B000F6018091690190916A010E94F80F809163
:1025C000690190916A01019668E671E00E94BB2F53
:1025D00090936A0180936901CF910895DF92EF9201
:1025E000FF920F931F93CF93DF93D82E80916701B3
:1025F000909168010E943122ED2DE695F0E0E259BC
:10260000FB4FE491F0E08E179F07E8F10E9419223A
:1026100090936801809367010CEF11E0C0E0D0E077
:1026200088E6E82EFF24F39480916501909166017D
:102630008C0F9D1FB7010E94BB2F98014091F7019D
:102640006091F6010E946F0EA4960D5F1F4FC83671
:1026500081E0D80749F70E94D10F209165013091A0
:102660006601D0FE0AC0C9010196BE010E94BB2FBF
:10267000909366018093650106C021503109309323
:10268000660120936501DF91CF911F910F91FF901B
:10269000EF90DF9008958F929F92AF92BF92CF926A
:1026A000DF92EF92FF920F931F93CF93DF93C82F88
:1026B00080FD03C09924939402C099249A94809138
:1026C0006301909164010E943122C695EC2FF0E0E5
:1026D000E559FB4FE491F0E08E179F0708F469C0BD
:1026E0000E94192290936401809363012CEFE22EE3
:1026F00021E0F22E0EEF11E0C0E0D0E037E0A32E93
:10270000B12CF80131971082F7011082F801108284
:1027100097E0C92ED12C812C80916201880D87FD14
:10272000865F992787FD9095C817D907E9F420910E
:10273000F7012C9DC0012D9D900D1124B5010E9423
:10274000CF2F462F8091F401881F8827881F9091F2
:10275000F501592F550F97FB992790F99701609133
:10276000F601852B0E946F0E890CF1E0CF1AD1087B
:10277000C114D10489F6219683E0E80EF11C0D5FA7
:102780001F4FCA30D10509F0BCCF0E94D10F8091F4
:10279000620191E0991206C0811102C089E007C070
:1027A000815005C090E00196BE010E94CF2F80931A
:1027B0006201DF91CF911F910F91FF90EF90DF9019
:1027C000CF90BF90AF909F908F9008959F92AF92BF
:1027D000BF92CF92DF92EF92FF920F931F93CF930E
:1027E000DF93CDB7DEB76E970FB6F894DEBF0FBE9E
:1027F000CDBF182F80916001909161010E9431221C
:10280000E12FF0E0E859FB4FE491F0E08E179F07CD
:1028100008F491C00E941922909361018093600195
:102820008E010F5F1F4F5E0183E0A80EB11CE12CEB
:10283000F12C6801F50131971082F8011082F50141
:102840001082912C9091010180915F01999E800DE1
:10285000112487FD04C08A301CF089E001C080E0AB
:10286000992787FD9095E816F906A1F48091F40167
:10287000881F8827881F9091F501592F550F97FBC6
:10288000992790F998014091F7016091F601852B05
:102890000E946F0E9394F7E09F12D4CF8FEFE81A47
:1028A000F80A0D5F1F4FE3E0AE0EB11CFAE0EF1621
:1028B000F10409F0BFCF2EEF31E009E010E05AE05B
:1028C000E52EF12CC801B7010E94CF2FD901119735
:1028D000FC01EE0FFF1FE80FF91FEC0DFD1D8181BC
:1028E0008C93119780818C938281F90180830F5F93
:1028F0001F4F2D5F3F4F0331110521F70E94D10F6C
:102900009091010180915F01913049F48A3F2CF44C
:1029100089EF80935F018FEF08C081500AC0813139
:102920003CF080E180935F0181E08093010103C06E
:102930008F5F80935F016E960FB6F894DEBF0FBE77
:10294000CDBFDF91CF911F910F91FF90EF90DF905E
:10295000CF90BF90AF909F9008951F920F920FB6A7
:102960000F9211242F933F934F935F936F937F9315
:102970008F939F93AF93BF93EF93FF938091F40155
:1029800086958F739EE3980F9F73943020F4825046
:102990000E94891223C09AE3980F9F73933020F40A
:1029A00086500E94BE121AC097E3980F9F7396300C
:1029B00020F489500E94EE1211C091E3980F9F738A
:1029C000963020F48F500E944B1308C09BE2980F62
:1029D0009F73933018F485510E94E613FF91EF9195
:1029E000BF91AF919F918F917F916F915F914F9127
:1029F0003F912F910F900FBE0F901F9018959093BD
:102A00007701809376010895E0917601F091770146
:102A1000309721F00190F081E02D099480E0089535
:102A2000FF920F931F93CF93DF938C01E091760178
:102A3000F0917701309799F10280F381E02D0995AB
:102A40008091D80182FF2BC080FF04C08DE796E003
:102A50000E949F07E80180E1F82E07E716E08091C9
:102A6000D80180FF0BC088811F928F931F930F9313
:102A70000E9438080F900F900F900F90FA942196B3
:102A8000F110EDCF8091D80180FF09C085E796E075
:102A9000DF91CF911F910F91FF900C949F07DF91D1
:102AA000CF911F910F91FF90089520917401309163
:102AB00075018217930771F09093750180937401EB
:102AC000E0917601F0917701309721F00680F7814F
:102AD000E02D0994089520917201309173018217BD
:102AE000930771F09093730180937201E0917601E6
:102AF000F0917701309721F00084F185E02D099461
:102B0000089508950C9481150E9410220E94FA0CD9
:102B10000E94ED220E9445270C94E811CF93C82F04
:102B20008091D80182FF1EC080FF04C086E996E034
:102B30000E949F078091D80180FF0CC01F92CF9305
:102B400021E936E03F932F930E9438080F900F90B1
:102B50000F900F908091D80180FF04C08FE896E01D
:102B60000E949F078C2FCF910C94480A5F926F921E
:102B70007F928F929F92AF92BF92CF92DF92EF920D
:102B8000FF920F931F93CF93DF93CDB7DEB72A97B2
:102B90000FB6F894DEBF0FBECDBF0E94300D99E78F
:102BA000C92E91E0D92E00E010E0AA24A394B12C04
:102BB000502E802F0E94E90D3C01F601E190F1902A
:102BC0006F01E826F926E114F104B1F40F5F1F4FFD
:102BD0000530110569F78FEF89838A831B820E9474
:102BE00019228160782F9D838C8349815A816B8162
:102BF0008D810E946D163AC08091D80181FD0E949E
:102C0000F20D20E030E04501022E02C0880C991C34
:102C10000A94E2F7C4018E219F21892B09F12E83AA
:102C20005F826820792081E0672809F480E0888746
:102C30000E9419228160782F9A8789874E815F814F
:102C400068858A850E946D16F801EE0FFF1FE75810
:102C5000FE4F80819181882599259183808306C0CC
:102C60002F5F3F4F2F30310571F6B0CF10917801B3
:102C70000E9404151817D9F00E940415809378015A
:102C80002A960FB6F894DEBF0FBECDBFDF91CF916D
:102C90001F910F91FF90EF90DF90CF90BF90AF907A
:102CA0009F908F907F906F905F900C948E152A96D6
:102CB0000FB6F894DEBF0FBECDBFDF91CF911F914D
:102CC0000F91FF90EF90DF90CF90BF90AF909F90CB
:102CD0008F907F906F905F900895CF93DF93CDB7E3
:102CE000DEB72B970FB6F894DEBF0FBECDBF4F8374
:102CF000588769877A878B87DE01119686E0FD0108
:102D000011928A95E9F785E0FE01379601900D92C0
:102D10008A95E1F749815A816B817C818D819E8101
:102D20000E94171D2B960FB6F894DEBF0FBECDBFC5
:102D3000DF91CF910895CF93C82F882309F4CCC099
:102D4000823859F40E94041581FDC6C089E30E94AF
:102D5000F21F0E94E12089E30CC0833879F40E94BD
:102D6000041580FDB9C083E50E94F21F0E94E12096
:102D700083E50E944320CF910C94E120843859F4DC
:102D80000E94041582FDA8C087E40E94F21F0E94E1
:102D9000E12087E4EECF8CEF8C0F813A48F48C2F42
:102DA0000E94F926811198C08C2F0E94F21FE3CF58
:102DB00080E28C0F883048F4C77081E001C0880F32
:102DC000CA95EAF70E949820D6CF8BE58C0F833006
:102DD00078F4C53A29F0C63A31F482E890E005C0AB
:102DE00081E890E002C083E890E0CF910C94551503
:102DF00088E58C0F853108F06FC0C83A61F1C93A97
:102E000069F1CA3A71F1CB3A79F1CC3A81F1CB3B15
:102E100089F1CC3B91F1CD3A99F1C03BA1F1CE3A89
:102E2000A9F1CF3AB1F1C13BB9F1C23BC1F1C33B0A
:102E3000C9F1C43BD1F1C53BD9F1C63BE1F1C73B78
:102E4000E9F1C83BF1F1C93BF9F1CA3B09F03FC0D8
:102E50008AE292E03EC082EE90E03BC089EE90E0D4
:102E600038C08AEE90E035C085EB90E032C086EB4A
:102E700090E02FC083EB90E02CC084EB90E029C061
:102E800087EB90E026C08CEC90E023C08DEC90E0C6
:102E900020C083E891E01DC08AE891E01AC082E971
:102EA00091E017C084E991E014C081E292E011C082
:102EB00083E292E00EC084E292E00BC085E292E0F1
:102EC00008C086E292E005C087E292E002C080E09E
:102ED00090E0CF910C946B15CF910895882309F45D
:102EE0004BC0823859F40E94041581FF45C089E324
:102EF0000E94F21F0E94E12089E30CC0833871F424
:102F00000E94041580FF38C083E50E94F21F0E94D2
:102F1000E12083E50E9443200C94E120843859F499
:102F20000E94041582FF28C087E40E94F21F0E94BD
:102F3000E12087E4EFCF9CEF980F913A58F390E2AD
:102F4000980F983050F4877091E001C0990F8A95DE
:102F5000EAF7892F0E949E20DFCF9BE5980F9330E0
:102F600020F480E090E00C945515885A853120F4C7
:102F700080E090E00C946B150895882321F00E9466
:102F800098200C94E1200895882321F00E949E202F
:102F90000C94E12008958F929F92AF92BF92CF92AE
:102FA000DF92EF92FF920F931F93CF93DF931F92C5
:102FB000CDB7DEB74C01A62E472FFC01E580E29489
:102FC0008FE0E822F280FF2021F079830E94B52073
:102FD000498149830E94EB1F4981882381F0FF20AA
:102FE00071F080E28A0D883050F082E00E94D41F98
:102FF0000E94EB1FBB24B394B826498101C0B12CB9
:10300000E42FE295EF70F0E0EA5AFF4F0C94E32FC3
:10301000842F807F142F1F70882311F01295107F4A
:10302000FF2089F0112309F48BC180E28A0D8830DA
:1030300020F4812F0E94982003C0812F0E94A82095
:103040000E94E1207DC18A2D0E946E17112309F490
:10305000B4C180E28A0D883020F4812F0E949E2026
:1030600003C0812F0E94AE200E94E120A6C1242F20
:10307000207F842F8F70203211F08295807FAA20CC
:1030800021F0F1E0AF16B1F021C0FF2041F0EE20B9
:1030900039F191E0E91224C00E94C8208EC1EE20CF
:1030A00021F0E1E0EE1609F488C189830E94CB206B
:1030B000898100C1FF2029F0F5E0FE1508F47DC1EB
:1030C0000FC094E09E1508F478C1F4C0FF2059F0B9
:1030D000EE2031F0F401958190FF32C19F7095830D
:1030E0000E94BD176AC1EE2009F4E4C02FC1242F4D
:1030F00026952695237030E02115310521F02130E9
:10310000310561F05AC1FF2021F08A2D942F937070
:1031100002C080E090E00E9455154FC1FF2021F0D1
:103120008A2D942F937002C080E090E00E946B156E
:1031300044C1842F837009F04EC0F1103EC12A2D86
:10314000229526952770220F220F8A2D8F70C82E68
:10315000D12CE12CF12C022E04C0CC0CDD1CEE1C79
:10316000FF1C0A94D2F7A4FE10C06FE070E080E06C
:1031700090E004C0660F771F881F991F2A95D2F729
:10318000609570958095909503C060E070E0CB01EC
:10319000242F26952695237030E02230310569F0E2
:1031A0002330310589F06C297D298E299F29213012
:1031B000310571F00E94691E00C16C297D298E299C
:1031C0009F290E94831EF9C00E94691EC701B60193
:1031D0000E944F1EF2C0FF2019F0842F817001C0A1
:1031E0008695882309F4E9C02A2D22952695277013
:1031F000220F220F8A2D8F70C82ED12CE12CF12C9A
:10320000022E04C0CC0CDD1CEE1CFF1C0A94D2F76D
:10321000A4FE10C06FE070E080E090E004C0660F94
:10322000771F881F991F2A95D2F760957095809512
:10323000909503C060E070E0CB01242F2695269581
:10324000237030E02230310569F02330310589F0F8
:103250006C297D298E299F292130310571F00E942A
:103260003D1FABC06C297D298E299F290E94571FC5
:10327000A4C00E943D1FC701B6010E94231F9DC02C
:103280000A2D10E0F801E05EF109E531F10508F0E2
:1032900053C0EA59FF4F0C94E32F1A2D1F70842F4F
:1032A0008F71FF2021F00E94BC1E812F19CF0E9438
:1032B000DD1E812F0E94C41780C0FF2049F0F4E07A
:1032C000FE1508F47AC0842F8F710E94021F75C00A
:1032D00085E08E1508F471C0F6CFFF2039F0842FF9
:1032E0008F710E94BC1E69C0FF20C9F3842F8F71AB
:1032F0000E94DD1E62C0FF2029F0842F8F710E9482
:10330000A71E5BC00E949D1E58C0FF2051F0142FC5
:103310001F71812F0E94BC1E63E0812F0E94CB1F72
:103320004CC081E00E94D41F91E09E1508F045C07A
:1033300082E00E94D41F41C0FF2031F0EE2079F2DC
:103340008A2D0E949B1639C0EE2081F28A2D0E94A0
:103350006E1733C04F706A2DC4010E94F90B0E9492
:10336000C41D2BC0F11029C0942F9F70492F50E02D
:1033700042305105B9F04CF44115510581F041300E
:103380005105D9F40E94802718C04330510569F0D7
:103390004430510591F48A2D0E940D280EC00E94E0
:1033A00056270BC00E94AF2708C00E94D52705C032
:1033B0004F706A2DC4010E944708BB20F1F00E94A3
:1033C000C71F80FD1AC0F40112820E94C11F0E9413
:1033D000BC1EC4010E940B1A0E94C11F0F90DF91F6
:1033E000CF911F910F91FF90EF90DF90CF90BF9002
:1033F000AF909F908F900C94DD1E0F90DF91CF9136
:103400001F910F91FF90EF90DF90CF90BF90AF9002
:103410009F908F9008950F931F93CF93DF93EC01AC
:10342000288139818B819C81892B31F03F3F11F0BC
:1034300080E003C02F3FE1F781E0811113C0CE018E
:103440000E947D08882371F0688179818A810E94B9
:10345000BD1F8C010E94711F0E94441EB801CE0145
:103460000E94CB17DF91CF911F910F9108950E9479
:10347000B5200E94C5200E9487200E94E12080E0A4
:1034800090E00E94551580E090E00C946B150E942E
:10349000A5200C94371A0E94B21F292F22952F7055
:1034A00030E02C3031054CF42A3031056CF42250D8
:1034B000310922303105B0F407C02C30310571F0EC
:1034C0002F30310559F00EC0803F31F018F4803EA6
:1034D00048F402C0843F31F481E0089593FB8827CB
:1034E00080F9089580E00895CF93DF9300D000D055
:1034F0001F92CDB7DEB70F900F900F900F900F90E7
:10350000DF91CF910895CF93DF9300D000D000D00A
:10351000CDB7DEB726960FB6F894DEBF0FBECDBF8F
:10352000DF91CF9108951F93CF93DF93C0918301D3
:1035300016E080918401C81799F0D0E01C9FF0013B
:103540001D9FF00D1124EB57FE4F40815181628188
:103550007381848195810E94831A2196C770E9CF77
:10356000DF91CF911F9108954091B5015091B6011F
:103570006091B7017091B8018091B9019091BA0141
:103580000C94831ACF938091BA0182958F7009F0C1
:103590005FC08091B701882309F45AC0209183014C
:1035A000A09184016091B5017091B6018091B8013C
:1035B0009091B90131E06F3F09F030E0B32FC6E0E0
:1035C0002A1709F445C0009721F07F3F21F44B2FC3
:1035D00003C041E001C040E030E040FD35C0C29F83
:1035E000F001C39FF00D1124EB57FE4F418174137E
:1035F0002BC04081641328C04281411125C0438102
:1036000054814817590710F441505109481B590B70
:10361000483C5105C8F48091BA018F708061809355
:10362000BA0186E0829FF001839FF00D1124E657D6
:10363000FE4F80818F708061808385EB91E00E94D6
:103640000B1ACF910C94931A2F5F3F4F2770B8CF6E
:10365000CF910895CF92DF92EF92FF920F931F9335
:10366000CF93DF93CDB7DEB762970FB6F894DEBF86
:103670000FBECDBF8C0185E0F801DE011D960190E3
:103680000D928A95E1F7D8014C9111965C911197B2
:1036900012966C9112971396ED90FC90149770917E
:1036A000B501E091B6012091B8013091B901211521
:1036B000310531F0EF3F31F481E07F3F19F403C071
:1036C00081E001C080E0B82FB170CB2E80FD6CC1CD
:1036D000D090B701DD2009F4F5C0F091BA01E216EF
:1036E000F30638F0C701821B930B883C910548F024
:1036F0009BC0209530952E0D3F1D283C310508F0CC
:1037000093C08F2F807F09F052C0E51314C074134B
:1037100012C0D62E61110FC0FF70F061F093BA0194
:103720000E94B41A85EB91E00E940B1A8091BA01B5
:10373000F80185836CC1EF2831F05F3F31F481E0FF
:103740004F3F19F403C081E001C080E080FD03C059
:1037500081E0862701C080E0F82FF170FF2E80FF06
:103760001CC0809183012091840136E0821709F406
:1037700028C190E0389FF001399FF00D1124EB57DC
:10378000FE4F7181571306C07081471303C07281C9
:10379000671303C001968770E9CFD62E662309F41C
:1037A00036C18091BA0181608093BA0153C0E5139C
:1037B00008C0741306C0611104C0D8011596FC93AB
:1037C000AEC04D875E878D859E856A8B0E944B1AA1
:1037D0006A89882329F1D62E662311F12091BA0136
:1037E000822F82958F7090E002970CF460C08091D8
:1037F000B5019091B60198878F831986FB86EA867A
:103800002C87CE01079651C0E51731F14D875E87B1
:103810008D859E856A8B0E944B1A6A8981112EC004
:10382000C8010E940B1AA4C08F2F807F69F77E2DDC
:10383000F98AE88A89890E94741A85EB91E00E94CE
:103840000B1AE5EBF1E086E0DF011D928A95E9F7BE
:103850000E94B41AD12CDBC07413D8CF6111D6CF1B
:10386000D8011596FC93C8010E940B1AE5EBF1E014
:1038700086E0DF011D928A95E9F7C9C0D62E66233E
:1038800079F22091BA01822F82958F7090E0029791
:1038900074F08091B5019091B6019A8389831B825F
:1038A000FD82EC822E83CE0101960E940B1A86E0E7
:1038B000F801A5EBB1E001900D928A95E1F70E9425
:1038C000C21A6FC0E216F30628F0C701821B930BE1
:1038D0009C0104C0209530952E0D3F1D283C3105DC
:1038E00008F052C0D62E662309F49ACFE5132CC0F7
:1038F00074132AC08091BA0180FD1DC0982F929543
:103900009F70C9F0D80115968C9315979F3039F0A8
:103910009F5F9295907F8F70892B15968C93C8012D
:103920000E940B1A86E0F801A5EBB1E001900D9220
:103930008A95E1F736C086E0F801A5EBB1E0019089
:103940000D928A95E1F763C04D875E878D859E85D0
:103950000E944B1A882379F086E0F801A5EBB1E0CC
:1039600001900D928A95E1F70E94C21A0E94B41A42
:10397000DD24D3944CC08091BA0181608093BA0158
:10398000C8010E940B1A43C07E2DF98AE88A8989F2
:103990000E94741AE5EBF1E086E0DF011D928A9542
:1039A000E9F70E94B41A33C0662309F439CF4D8772
:1039B0005E878D859E850E944B1A882309F430CF3F
:1039C000CBCF4D875E878D859E850E94B21F292FA4
:1039D00022952F7030E0223031052CF49F7041F099
:1039E000811106C00CC0243031052CF49F7049F4BD
:1039F000805E883020F0C8010E940B1ACF2CDC2C8E
:103A000006C0D80115969C91907F91F7F8CF8D2D27
:103A100062960FB6F894DEBF0FBECDBFDF91CF9197
:103A20001F910F91FF90EF90DF90CF9008951F931B
:103A3000CF93DF93CDB7DEB72C970FB6F894DEBFE8
:103A40000FBECDBF4F83588769877A878B879C8746
:103A5000CE0107960E942A1B8823C1F02F8138854A
:103A60008A859B85892B31F03F3F11F080E003C0B0
:103A70002F3FE1F781E0811147C04F81588569856B
:103A80007A858B859C850E94831A3EC086E0FE0164
:103A90003796DE01119601900D928A95E1F7FF812C
:103AA000E8854A855B854115510531F0EF3F31F4DA
:103AB00081E0FF3F19F403C081E001C080E080FD98
:103AC00023C02091840130E0C901019687709927B5
:103AD0006091830170E086179707F1F1F983EA831B
:103AE0005D834C8396E0929FD001939FB00D11248B
:103AF000AB57BE4FFE01319601900D929A95E1F7BA
:103B0000809384010E94931A16E080918301909122
:103B10008401891779F1189FC00111248B579E4F9A
:103B20000E942A1B882331F1E09183011E9FF0013E
:103B30001124EB57FE4F4081518162817381848152
:103B400095810E94831A8091830190E0019687708D
:103B5000992780938301D9CF0E94471A109284013C
:103B600010928301E5EBF1E086E0DF011D928A957A
:103B7000E9F7CACF2C960FB6F894DEBF0FBECDBFC3
:103B8000DF91CF911F910895EF92FF920F931F93B2
:103B9000CF93DF93FC01009709F46FC0F12CEE2462
:103BA000E394EF0121968491843740F4843008F047
:103BB00055C0813081F0823021F15FC0853709F432
:103BC00047C0C0F19CE7980F903708F056C08F7738
:103BD0000E946E1745C08F010E5F1F4FFE0184913A
:103BE00090E2980F983050F48770FE2D01C0FF0FBF
:103BF0008A95EAF78F2F0E94B82015C00E949B1665
:103C000014C08F010E5F1F4FFE01849190E2980F48
:103C1000983068F48770FE2D01C0FF0F8A95EAF78F
:103C20008F2F0E94BE200E94E120E80119C00E944F
:103C30006E17FBCFCF010296FE01C491CC2361F039
:103C4000EFE9FFE03197F1F700C00000C150F6CF77
:103C5000CF010296FE01F490EC0102C00E949B1677
:103C60008F2D882341F0EFE9FFE03197F1F700C095
:103C700000008150F6CFFE0194CFDF91CF911F91CC
:103C80000F91FF90EF90089508956093BF01709396
:103C9000C0018093C1019093C2010C94371A0F9315
:103CA0001F930091BF011091C0012091C10130917B
:103CB000C201062B172B282B392B0093BF01109321
:103CC000C0012093C1013093C2011F910F910C9448
:103CD000371A0F931F930091BF011091C0012091DB
:103CE000C1013091C20106231723282339230093F1
:103CF000BF011093C0012093C1013093C2011F91F5
:103D00000F910C94371A0F931F930091BF011091DC
:103D1000C0012091C1013091C20106271727282731
:103D200039270093BF011093C0012093C101309344
:103D3000C2011F910F910C94371A1092BB0110927F
:103D4000BC011092BD011092BE010C94371A41E0E3
:103D500050E060E070E004C0440F551F661F771FFD
:103D60008A95D2F74093BB015093BC016093BD018B
:103D70007093BE010C94371A41E050E060E070E0AF
:103D800004C0440F551F661F771F8A95D2F7809194
:103D9000BB019091BC01A091BD01B091BE01842BEB
:103DA000952BA62BB72B8093BB019093BC01A093BE
:103DB000BD01B093BE010C94371A41E050E060E0C1
:103DC00070E004C0440F551F661F771F8A95D2F715
:103DD00040955095609570958091BB019091BC0184
:103DE000A091BD01B091BE0184239523A623B723E2
:103DF0008093BB019093BC01A093BD01B093BE0121
:103E00000C94371A41E050E060E070E004C0440FC9
:103E1000551F661F771F8A95D2F78091BB0190913D
:103E2000BC01A091BD01B091BE0184279527A627B2
:103E3000B7278093BB019093BC01A093BD01B093C1
:103E4000BE010C94371A0F931F930091BB01109180
:103E5000BC012091BD013091BE01062B172B282BF0
:103E6000392B0093BB011093BC012093BD0130930B
:103E7000BE011F910F910C94371A0F931F9300915D
:103E8000BB011091BC012091BD013091BE01062300
:103E90001723282339230093BB011093BC012093DF
:103EA000BD013093BE011F910F910C94371A0F93EF
:103EB0001F930091BB011091BC012091BD01309175
:103EC000BE0106271727282739270093BB01109327
:103ED000BC012093BD013093BE011F910F910C9442
:103EE000371A0895CF92DF92EF92FF920F931F93AC
:103EF000CF93DF93EC01C090BF01D090C001E09060
:103F0000C101F090C2018091BB019091BC01A091D0
:103F1000BD01B091BE01C82AD92AEA2AFB2A0FE1C5
:103F200010E0B701A601002E04C07695679557955D
:103F300047950A94D2F740FD05C00150110988F752
:103F400080E007C0BE01802F0E944A0A0197A9F3B2
:103F5000802FDF91CF911F910F91FF90EF90DF9015
:103F6000CF900895CF93DF93EC010E94721FBE01A2
:103F70000E944A0ADF91CF910895CB010E94B21F9F
:103F800008958091C30185958595859508958091C3
:103F9000C3018770089598E0899F90011124622BD6
:103FA0006093C3010C94BC1E4091C301809584238F
:103FB0008093C301982F977069F450E0282F33271E
:103FC00027FD30954217530729F0859585958595EE
:103FD0000C94DD1E08959091C301977081E009F45F
:103FE00080E0089590910F01992361F19091020171
:103FF000992341F1982F9695969596959F3088F440
:10400000E0910301F0910401E90FF11D877021E0B7
:1040100030E001C0220F8A95EAF78181822B8183EB
:1040200008959091D80190FF2DC01F928F9387EC37
:1040300096E09F938F930E9438080F900F900F90F7
:104040000F900895409103015091040120E030E069
:104050009FEFFA01E20FF31F6281681799F09F3F0B
:1040600019F4611101C0922F2F5F3F4F2E3031059F
:1040700081F79F3F39F0FA01E90FF11D97FDFA959D
:1040800082830895089590910F01992369F1909189
:104090000201992349F1982F9695969596959F3010
:1040A00090F4E0910301F0910401E90FF11D877094
:1040B00021E030E001C0220F8A95EAF72095818146
:1040C0002823218308959091D80190FF1FC01F924B
:1040D0008F9389EA96E09F938F930E9438080F9000
:1040E0000F900F900F90089540910301509104019B
:1040F00020E030E0FA01E20FF31F9281981301C033
:1041000012822F5F3F4F2E303105A1F7089581E0D5
:1041100090E0E0910301F0910401E80FF91F108293
:10412000019680319105A9F708958091D7010895EE
:104130009091D701982B9093D701089580959091F5
:10414000D70198239093D70108951092D70108952D
:104150009091D601982B9093D601089580959091D7
:10416000D60198239093D60108951092D601089510
:104170009091D501982B9093D501089580959091B9
:10418000D50198239093D50108951092D5010895F3
:104190008093C40108951092C401089540910301D1
:1041A0005091040120E030E080E0FA01E20FF31FBB
:1041B000918191118F5F2F5F3F4F2F303105A9F70C
:1041C0000895E0910301F09104018091D70180836B
:1041D000E0910301F091040180819091D601892B37
:1041E0008083E0910301F091040180819091D501D9
:1041F000892B80839091C401992361F0E0910301A0
:10420000F09104018081892B80830E94CE2081114E
:104210001092C40180910301909104010C94101537
:10422000909339018093380108958295982F9C7C52
:1042300096959695837344E0849F90011124922B68
:10424000892F8A7A86959575990F892B08951F93E2
:10425000CF93DF931F92CDB7DEB799830E941521CC
:10426000182F9981892F0E941521212F30E0322F9C
:104270002227A901482BCA010F90DF91CF911F91EE
:1042800008956DEE7EEF80E090E00E941B3060E0CC
:1042900082E090E00E94FD2F60E083E090E00E94C9
:1042A000FD2F60E084E090E00E94FD2F60E085E05B
:1042B00090E00E94FD2F60E086E090E00E94FD2FDC
:1042C00040E050E0BA0188E090E00C940F3080E0CC
:1042D00090E00E94F72F21E08D3E9E4F09F020E0F4
:1042E000822F089582E090E00C94E92F682F82E0FD
:1042F00090E00C94FD2F83E090E00C94E92F682F60
:1043000083E090E00C94FD2F84E090E00C94E92F82
:10431000682F84E090E00C94FD2F86E090E00C94F0
:10432000E92F682F86E090E00C94FD2F8091210208
:10433000843039F11092D90120E488E190E00FB681
:10434000F894A895809360000FBE2093600080E0F1
:104350000E94160A80E00E94480A83B7817F846029
:1043600083BF83B7816083BF7894889583B78E7F3E
:1043700083BF88E10FB6F8948093600010926000CC
:104380000FBE089508950895CF9380E00E94160A05
:104390000E94C2210E94300D0E94C321C0E08C2FD8
:1043A0000E94E90D892B29F4CF5FC530C1F780E069
:1043B00001C081E0CF9108950E94471A80E00E94D9
:1043C000160A0E9445270E9404150C94480A1F9261
:1043D0000F920FB60F9211248F939F93AF93BF93B9
:1043E0008091D901811113C08091DA019091DB0194
:1043F000A091DC01B091DD014196A11DB11D80931A
:10440000DA019093DB01A093DC01B093DD01BF9151
:10441000AF919F918F910F900FBE0F901F901895A5
:1044200082E084BD93E095BD9AEF97BD80936E00C6
:1044300008952FB7F8948091DA019091DB01A09153
:10444000DC01B091DD012FBF08952FB7F894609182
:10445000DA017091DB018091DC019091DD012FBFC9
:104460000895CF92DF92EF92FF920F931F932FB791
:10447000F8944091DA015091DB016091DC01709178
:10448000DD012FBF6A017B01EE24FF248C0120E0B7
:1044900030E0C016D106E206F30610F4415051098F
:1044A000481B590BCA011F910F91FF90EF90DF90AD
:1044B000CF9008951F920F920FB60F9211248F93F1
:1044C0009F93AF93BF938091DA019091DB01A0910C
:1044D000DC01B091DD010196A11DB11D8093DA01CF
:1044E0009093DB01A093DC01B093DD01BF91AF910C
:1044F0009F918F910F900FBE0F901F9018950E9463
:10450000BB2CF8942FEF87EA91E621508040904031
:10451000E1F700C0000087E090EBDC0180932A0205
:1045200090932B02A0932C02B0932D022CE088E1F3
:1045300090E00FB6F894A895809360000FBE20938A
:104540006000FFCFBF92CF92DF92EF92FF920F9366
:104550001F93CF93DF93B12C01E010E0E82EF12CF4
:104560008B2D0E94E90D6C01C0E0D0E098010C2E6B
:1045700002C0220F331F0A94E2F72C213D21232B86
:1045800029F42196CF30D10589F70AC06C2F7B2DF5
:1045900080E00E94FC0BE816F90699F781E005C05F
:1045A000B39485E0B812DCCF80E0DF91CF911F910A
:1045B0000F91FF90EF90DF90CF90BF900895CF9331
:1045C000C82F8CE20E94A222882321F08C2FCF9149
:1045D0000C94A22280E0CF910895CF930E9467218E
:1045E000811102C00E9441218CEE96E00E949F073B
:1045F000C5E6C15049F00E94300D8FE39CE9019758
:10460000F1F700C00000F5CF85EE96E00E949F070D
:1046100089E20E94DF22811114C18AE20E94DF2216
:1046200081110E94412185E00E94DF2281110E94B8
:104630007F220E9472218093D80187E00E94DF22AE
:10464000882399F18BE10E94DF22882351F0909119
:10465000D80191FB882780F921E0822780FB91F91E
:1046600022C08EE00E94DF22882351F09091D80171
:1046700092FB882780F921E0822780FB92F913C002
:1046800080E10E94DF229091D801882341F093FBC2
:10469000882780F921E0822780FB93F904C0892FC5
:1046A000809580FB90F99093D8018091D8010E9469
:1046B00076210E94842190E090931B0280931A023D
:1046C00080EE0E94DF22882341F080911A02982F09
:1046D000909590FB80F980931A0289E30E94DF2273
:1046E000882359F090911A0291FB882780F921E0E4
:1046F000822780FB91F990931A0282EE0E94DF22BA
:10470000882359F090911A0292FB882780F921E0C2
:10471000822780FB92F990931A0286EE0E94DF2294
:10472000882359F090911A0293FB882780F921E0A1
:10473000822780FB93F990931A0283EE0E94DF2276
:10474000882359F090911A0294FB882780F921E080
:10475000822780FB94F990931A0285E30E94DF225E
:10476000882359F090911A0295FB882780F921E05F
:10477000822780FB95F990931A0281E30E94DF2241
:10478000882359F090911A0296FB882780F921E03E
:10479000822780FB96F990931A0281E10E94DF2222
:1047A000882359F090911A0297FB882780F921E01D
:1047B000822780FB97F990931A0280911A020E9437
:1047C000882180911A0287FB882780F98093020153
:1047D00087E20E94DF22C82F8EE10E94DF22811132
:1047E000C2608FE10E94DF228111C46080E20E94DA
:1047F000DF228111C86081E20E94DF228111C06145
:1048000082E20E94DF228111C06283E20E94DF22E5
:104810008111C06484E20E94DF22882311F0C06805
:1048200002C0CC2329F08C2F0E947F216C2F03C063
:104830000E947B21682F70E080E090E0CF910C9483
:10484000451ECF910895CF93C82F1F928F9327E0D5
:1048500037E03F932F930E94380861E070E080E0DA
:1048600090E004C0660F771F881F991FCA95D2F782
:104870000E94451E0F900F900F900F90CF910C94B7
:10488000471ACF938B3109F40FC208F049C08E301C
:1048900009F41DC200F5873009F4E7C1A8F4863099
:1048A00009F09BC28091D801817F8E7F8093D801CF
:1048B0008CE998E00E949F0788E89CE00E949F078F
:1048C00081E08093DE01CFC1883009F45BC08B307A
:1048D00009F4C5C182C2813109F467C220F4803174
:1048E00009F408C27AC2863109F41EC2893109F07E
:1048F00074C28DE898E00E949F078CE598E00E94C2
:104900009F0785E298E00E949F0782EF97E00E9450
:104910009F0786EB97E00E949F0788E897E0A1C178
:10492000853309F456C268F4873209F452C228F478
:104930008E3108F452C28D514DC2893209F449C2F8
:104940004CC2833438F48A3308F041C2883309F406
:1049500086C143C2833409F43CC2883409F03DC2A5
:104960000E94471A8CE69CE00E949F079FEF23ED70
:1049700080E3915020408040E1F700C000000E9499
:104980007F2271C18CE89CE00E949F0789ED9BE02B
:104990000E949F070E947B211F928F9386ED9BE0D0
:1049A0009F938F930E94380884ED9BE00E949F079D
:1049B0000E947221C82F81EC9BE00E949F071F92EA
:1049C000CF932CEB3BE03F932F930E9438088AEB68
:1049D0009BE00E949F0780EB9BE00E949F078C2F2B
:1049E00081701F928F932DEA3BE03F932F930E949B
:1049F00038088BEA9BE00E949F0781EA9BE00E94B7
:104A00009F07C1FB882780F91F928F932EE93BE017
:104A10003F932F930E9438088CE99BE00E949F07E8
:104A200080E99BE00E949F07C2FB882780F91F92C4
:104A30008F932DE83BE03F932F930E9438088BE83B
:104A40009BE00E949F0782E89BE00E949F07C3FBB8
:104A5000CC27C0F91F92CF938FE79BE09F938F9352
:104A60000E9438088DE79BE00E949F070E948421E6
:104A7000C82F89E69BE00E949F071F92CF9324E6F0
:104A80003BE03F932F930E94380882E69BE00E9410
:104A90009F0789E49BE00E949F078C2F81701F92E3
:104AA0008F9326E43BE03F932F930E9438088DB705
:104AB0009EB780960FB6F8949EBF0FBE8DBF84E45C
:104AC0009BE00E949F078DE29BE00E949F07C1FB35
:104AD000882780F91F928F932AE23BE03F932F9320
:104AE0000E94380888E29BE00E949F0786E19BE0D5
:104AF0000E949F07C2FB882780F91F928F9323E1B2
:104B00003BE03F932F930E94380881E19BE00E9495
:104B10009F078FEF9AE00E949F07C3FB882780F9C9
:104B20001F928F932CEF3AE03F932F930E94380807
:104B30008AEF9AE00E949F0780EF9AE00E949F0709
:104B4000C4FB882780F91F928F932DEE3AE03F93A4
:104B50002F930E9438088BEE9AE00E949F0789ED00
:104B60009AE00E949F07C5FB882780F91F928F93C8
:104B700026ED3AE03F932F930E94380884ED9AE0A7
:104B80000E949F0788EB9AE00E949F07C6FB882738
:104B900080F91F928F9325EB3AE03F932F930E9469
:104BA000380883EB9AE00E949F078BEA9AE00E9404
:104BB0009F07C7FBCC27C0F91F92CF9388EA9AE0E2
:104BC0009F938F930E94380886EA9AE00E949F077D
:104BD0000E948D21C82F8FE89AE00E949F071F92A4
:104BE000CF932AE83AE03F932F930E9438088DB77D
:104BF0009EB780960FB6F8949EBF0FBE8DBF88E813
:104C00009AE00E949F078EE79AE00E949F078C2FF0
:104C100081701F928F932BE73AE03F932F930E946E
:104C2000380889E79AE00E949F0780E79AE00E948F
:104C30009F07C6951F92CF938DE69AE09F938F931F
:104C40000E9438088BE69AE00E949F078DB79EB7B6
:104C500008960FB6F8949EBF0FBE8DBF04C087EBB9
:104C600098E00E949F07C1E0BDC08091D801C82F85
:104C7000C095C170C0FB80F98093D801CC2349F066
:104C800080E69CE00E949F078091D8018660886042
:104C900045C083E59CE00E949F078091D801897FF1
:104CA000877F8093D801DFCF8091D80181FBCC270B
:104CB000C0F991E0C927C0FB81F98093D801CC23CA
:104CC00019F086E49CE025C088E39CE0CACF80917F
:104CD000D80182FBCC27C0F991E0C927C0FB82F93B
:104CE0008093D801CC2319F089E29CE012C089E1BD
:104CF0009CE0B7CF8091D80183FBCC27C0F991E02D
:104D0000C927C0FB83F98093D801CC2351F08DE0F3
:104D10009CE00E949F078091D80181608093D80118
:104D200061C080E09CE09DCF8AE797E00E949F07EA
:104D30000E9404151F928F9380E697E09F938F93B4
:104D40000E94380880910F011F928F9389E497E0A9
:104D50009F938F930E9438088091F3011F928F9345
:104D600086E397E09F938F930E9438088091020119
:104D70001F928F9383E297E09F938F930E9438084E
:104D80000E9425229F938F937F936F938CE097E0EF
:104D90009F938F930E9438088DB79EB746960FB6A3
:104DA000F8949EBF0FBE8DBF5ECF0E94471AC09180
:104DB000020181E0C827C0930201CC2329F086EFCD
:104DC0009BE00E949F070EC08BEE9BE04ACF895369
:104DD00001C080E00E94232446CF89EE9BE00E9420
:104DE0009F07C0E08C2FCF91089580E0089580E068
:104DF0000895CF93C82F8091DE01882319F0813068
:104E000049F03BC0E0910301F091040180818232BE
:104E1000B1F507C0E0910301F09104018081823275
:104E200049F48C2F0E94F526811124C08C2F0E94FA
:104E3000412421C08C2F0E94F72681111BC0C43150
:104E400089F018F4CB3029F010C0C93259F0C833BA
:104E500061F48CE998E00E949F0783E097E00E944C
:104E60009F0708C01092DE010CC081E097E00E940D
:104E70009F0707C081E0817006C01092DE0180E0CC
:104E800002C080E0F8CFCF9108950E946721811180
:104E900002C00E9441210E948D2180931C0280FF4C
:104EA00002C0869501C080E00C94160A80911C0215
:104EB000982F9695292F30E0233031054CF49F5FD1
:104EC000990F8170892B816080931C020E9491212F
:104ED0008091D80180FF0FC080911C0286951F929F
:104EE0008F9389ED9CE09F938F930E9438080F90D9
:104EF0000F900F900F9080911C0286950C94160ACB
:104F000080911C02982F969591F09158990F81707D
:104F1000892B80931C028E7F91E009F490E08091B0
:104F20001C0290FB80F980931C020E9491218091C9
:104F3000D80180FF0FC080911C0286951F928F932D
:104F400081EC9CE09F938F930E9438080F900F9004
:104F50000F900F9080911C0286950C94160A8091F8
:104F60001C02982F909590FB80F980931C020E9460
:104F700091218091D80180FF0FC080911C02817027
:104F80001F928F938BEA9CE09F938F930E94380827
:104F90000F900F900F900F9080911C0280FF02C025
:104FA000869501C080E00C94160A30911C02232FD4
:104FB00026952F5F2F77822F90E0317004972CF485
:104FC000220F232B20931C0202C030931C028091DD
:104FD0001C028E7F91E009F490E080911C0290FB0E
:104FE00080F980931C020E9491218091D80180FF5A
:104FF0000FC080911C0286951F928F9387E99CE0D9
:105000009F938F930E9438080F900F900F900F90EE
:1050100080911C0286950C94160A20911C02922FF6
:1050200096959827990F822F8170892B80931C0267
:105030008E7F91E009F490E080911C0290FB80F952
:1050400080931C020E94912180911C0286950C94F1
:10505000160A8091F201089508959FB7F89410926E
:10506000E1019FBF90912102943009F058C09091C6
:10507000E9009F702091EC0020FF02C020E801C0F1
:1050800020E0292B93E09093E9009091EB0090FFB2
:1050900043C09091EE0097FF3FC09091DF019923AC
:1050A00021F09091E80095FF37C01092DF0196E063
:1050B0003091E80035FD15C030912102343061F5A2
:1050C0003091EB0035FD28C0915021F481E08093B0
:1050D000DF0122C0EFE9FFE03197F1F700C00000E7
:1050E000E7CF8093F1008091E80085FD0AC08091B0
:1050F000E80080FFFCCF8091E8008E778093E80085
:1051000006C08FB7F89491E09093E1018FBF2F70A4
:105110002093E90080E008952F702093E9008FEF3D
:105120000895CF93DF9300D01F92CDB7DEB72091C3
:105130002102243021F523E029839B838A8382E0A6
:105140008093E9008FEF9091E800815095FD06C0B3
:1051500095ED9A95F1F700008111F5CF8091E80067
:1051600085FF0DC040E050E063E070E0CE010196A5
:105170000E94292B8091E8008E778093E8000F90A1
:105180000F900F90DF91CF910895CF93DF9300D0D0
:105190001F92CDB7DEB720912102243019F522E00D
:1051A00029839B838A832093E9008FEF9091E80005
:1051B000815095FD06C095ED9A95F1F7000081119B
:1051C000F5CF8091E80085FF0DC040E050E063E03E
:1051D00070E0CE0101960E94292B8091E8008E7725
:1051E0008093E8000F900F900F90DF91CF9108957A
:1051F000CF93DF93EC0180912102843009F046C007
:1052000090910F019923D9F0909102019923B9F05F
:105210008093E9008FEF9091E800815095FD06C0E2
:1052200095E19A95F1F700008111F5CF8091E800A2
:1052300085FF2CC040E050E060E170E017C081E0E5
:105240008093E9008FEF9091E800815095FD06C0B2
:1052500095ED9A95F1F700008111F5CF8091E80066
:1052600085FF14C040E050E068E070E0CE010E948D
:10527000292B8091E8008E778093E80080E1FE0181
:10528000A2EEB1E001900D928A95E1F7DF91CF9106
:10529000089586E19DE00E949F0780912002811180
:1052A00009C00E94BB2C0E94182D8091E2008460EE
:1052B0008093E200089582E19DE00E949F07109292
:1052C000200208958EE09DE00C949F078AE09DE007
:1052D0000C949F0786E09DE00E949F070C94DC21C0
:1052E0008091E0018F5F8093E00162E30E94AF2F25
:1052F000911135C01092E0018091E101882379F18C
:1053000080912102843049F58091E9008F7090915D
:10531000EC0090FF02C090E801C090E0982B83E081
:105320008093E9008091EB0080FF14C08091EE0033
:1053300087FF10C08091E80085FF03C01092F10044
:10534000F9CF8091E80080FF05C08091E8008E775A
:105350008093E8009F709093E9001092E101089516
:1053600042E061EC81E00E94352C42E061EC82E099
:105370000E94352C42E261EC83E00E94352C42E130
:1053800061EC84E00C94352C80912302833009F485
:1053900055C030F4813071F0823009F48EC0089528
:1053A0008A3009F47AC08B3009F460C0893009F082
:1053B0009CC020C080912202813A09F096C0809161
:1053C000E800877F8093E800809126029091270271
:1053D000892B21F060E080E090E003C060E182EE84
:1053E00091E070E00E94722B8091E8008B778093AF
:1053F000E800089580912202813209F076C0809100
:10540000260290912702009719F0039709F06DC0CA
:105410008091E800877F8093E8008091E80082FD1A
:1054200005C0809121028111F8CF5FC08091F10009
:105430008093F2018091E8008B7753C08091220223
:10544000813A09F052C08091260290912702892B5F
:1054500009F04BC08091E800877F8093E80080913D
:10546000E80080FFFCCF80910F0136C080912202BE
:105470008132D9F58091260290912702892BA9F5D6
:105480008091E800877F8093E8000E946A2C8091D9
:10549000240280930F010C94471A809122028132DA
:1054A00021F58091E800877F8093E8000E946A2CB4
:1054B000809125028093F301089580912202813A20
:1054C000A1F48091E800877F8093E8008091E80054
:1054D00080FFFCCF8091F3018093F1008091E80080
:1054E0008E778093E8000C946A2C089584B7877FA8
:1054F00084BF88E10FB6F89480936000109260003A
:105500000FBE80E880936100109261000E948215B6
:105510000E94BB2C0E94182D8091E2008460809331
:10552000E2008DE298E20E94102178940E94922F6E
:105530000E94841585E091E00E94FF1485EF9CE0B5
:105540000E949F0780912102853089F481EF9CE0C1
:105550000E949F070E94962180911F02882391F349
:105560000E94C421882371F30E94132BEBCF0E9469
:10557000B615E8CF292F332723303105A9F06CF475
:105580002130310509F442C02230310509F043C011
:1055900084E790E022E43DE042C021323105C9F0C9
:1055A0002232310519F137C099278130910541F038
:1055B0008230910541F0892B71F5EEE3FDE005C0E5
:1055C000ECE2FDE002C0EAE1FDE0849190E09F01A1
:1055D00026C0643000F5E62FF0E0EE0FFF1FE05D1F
:1055E000FE4F2081318189E090E019C0643098F449
:1055F000E62FF0E0DF01AA0FBB1FA85DBE4F2D9183
:105600003C91EC5DFE4F808190E009C082E190E02A
:1056100026EB3DE004C080E090E020E030E0FA01BD
:1056200031832083089580E189BD82E189BD09B479
:1056300000FEFDCF8091D8008F7D8093D8008091AF
:10564000E00082608093E0008091E00081FDFCCF6B
:105650000895CF92DF92EF92FF920F931F93CF9313
:10566000DF937C018B01EA010E948B2C811131C0F8
:10567000209731F088819981081B190BE80EF91EDB
:10568000C12CD12C0115110519F18091E80085FD7F
:1056900014C08091E8008E778093E800209741F055
:1056A000888199818C0D9D1D9983888385E011C027
:1056B0000E948B2C882331F30CC0F70181917F016C
:1056C0008093F10001501109FFEFCF1ADF0ADACF02
:1056D00080E0DF91CF911F910F91FF90EF90DF90CD
:1056E000CF9008952091280230912902261737077C
:1056F00048F06115710539F42091E8002E77209368
:10570000E80001C0B901FC0120E061157105B9F1A3
:1057100080912102882309F440C0853009F43FC0FC
:105720008091E80083FD3DC08091E80082FF06C0C3
:105730008091E80082FF26C080E008958091E80013
:1057400080FFE3CF2091F3008091F20090E0922B54
:105750006115710551F08830910538F4219120933D
:10576000F100615071090196F3CF21E0089709F02B
:1057700020E08091E8008E778093E800C6CF211169
:10578000C7CFD6CF80912102882339F0853039F0F8
:105790008091E80083FFCCCF04C082E0089583E0CD
:1057A000089581E00895209128023091290226175A
:1057B000370748F06115710539F42091E8002E771C
:1057C0002093E80001C0B901FC0120E061157105DA
:1057D000C1F180912102882309F441C0853009F488
:1057E00040C08091E80083FD3EC08091E80082FFC8
:1057F00006C08091E80082FF27C080E00895809174
:10580000E80080FFE3CF2091F3008091F20090E068
:10581000922B6115710559F08830910540F424915F
:105820002093F1003196615071090196F2CF21E089
:10583000089709F020E08091E8008E778093E800D7
:10584000C5CF2111C6CFD5CF80912102882339F051
:10585000853039F08091E80083FFCBCF04C082E02F
:10586000089583E0089581E00895982F973058F5C2
:105870009093E900981739F07091EC002091ED00B9
:105880005091F00003C0242F762F50E021FF19C063
:105890003091EB003E7F3093EB003091ED003D7F87
:1058A0003093ED003091EB0031603093EB0070935A
:1058B000EC002093ED005093F0002091EE0027FFC4
:1058C00007C09F5FD3CF8F708093E90081E0089578
:1058D00080E008958091220287FD05C08091E80054
:1058E00080FF0EC012C08091E80082FD05C080914B
:1058F00021028111F8CF08958091E8008B7708C0CC
:10590000809121028111EACF08958091E8008E777D
:105910008093E80008958091E4009091E50045E6C9
:105920002091EC0020FF21C02091E80020FD21C043
:1059300020912102222389F0253089F02091EB006B
:1059400025FD0FC02091E4003091E50028173907AC
:1059500039F3415041F0C901E3CF82E0089583E07B
:10596000089581E0089584E008952091E80022FFE1
:10597000DFCF80E008950E94292D0E94312DE0EEB6
:10598000F0E0808181608083E8EDF0E080818F77B6
:10599000808319BCA7EDB0E08C918E7F8C938081C1
:1059A0008F7E80831092200208950F931F93CF93D0
:1059B000DF930E94292D0E94312DC8EDD0E088810F
:1059C0008F77888388818068888388818F7D8883AA
:1059D00019BC1092210210921D0210921F02109207
:1059E0001E0200EE10E0F80180818B7F80838881A9
:1059F0008160888342E060E080E00E94352CE1EE27
:105A0000F0E080818E7F8083E2EEF0E08081816033
:105A10008083808188608083F80180818E7F80838D
:105A2000888180618883DF91CF911F910F910895C4
:105A3000E8EDF0E080818F7E8083E7EDF0E080810B
:105A40008160808384E082BF81E0809320020C9497
:105A5000D52CE8EDF0E080818E7F80831092E2000B
:105A600008951092DA001092E10008951F920F92AB
:105A70000FB60F9211242F933F934F935F936F9321
:105A80007F938F939F93AF93BF93EF93FF938091F7
:105A9000E10082FF0BC08091E20082FF07C080918D
:105AA000E1008B7F8093E1000E9470298091DA00F1
:105AB00080FF1FC08091D80080FF1BC08091DA005A
:105AC0008E7F8093DA008091D90080FF0DC080E145
:105AD00089BD82E189BD09B400FEFDCF81E08093DC
